{
  "_format": "hh-sol-artifact-1",
  "contractName": "ReportAccess",
  "sourceName": "contracts/reportContract.sol",
  "abi": [
    {
      "anonymous": false,
      "inputs": [
        {
          "indexed": true,
          "internalType": "address",
          "name": "doctor",
          "type": "address"
        },
        {
          "indexed": false,
          "internalType": "string",
          "name": "ipfsHash",
          "type": "string"
        }
      ],
      "name": "AccessGranted",
      "type": "event"
    },
    {
      "anonymous": false,
      "inputs": [
        {
          "indexed": true,
          "internalType": "address",
          "name": "doctor",
          "type": "address"
        },
        {
          "indexed": false,
          "internalType": "string",
          "name": "ipfsHash",
          "type": "string"
        }
      ],
      "name": "AccessRevoked",
      "type": "event"
    },
    {
      "anonymous": false,
      "inputs": [
        {
          "indexed": true,
          "internalType": "address",
          "name": "owner",
          "type": "address"
        },
        {
          "indexed": false,
          "internalType": "string",
          "name": "ipfsHash",
          "type": "string"
        }
      ],
      "name": "ReportRegistered",
      "type": "event"
    },
    {
      "inputs": [
        {
          "internalType": "string",
          "name": "ipfsHash",
          "type": "string"
        },
        {
          "internalType": "address",
          "name": "user",
          "type": "address"
        }
      ],
      "name": "canAccess",
      "outputs": [
        {
          "internalType": "bool",
          "name": "",
          "type": "bool"
        }
      ],
      "stateMutability": "view",
      "type": "function"
    },
    {
      "inputs": [
        {
          "internalType": "string",
          "name": "ipfsHash",
          "type": "string"
        },
        {
          "internalType": "address",
          "name": "doctor",
          "type": "address"
        }
      ],
      "name": "grantAccess",
      "outputs": [],
      "stateMutability": "nonpayable",
      "type": "function"
    },
    {
      "inputs": [
        {
          "internalType": "string",
          "name": "ipfsHash",
          "type": "string"
        }
      ],
      "name": "registerReport",
      "outputs": [],
      "stateMutability": "nonpayable",
      "type": "function"
    },
    {
      "inputs": [
        {
          "internalType": "string",
          "name": "ipfsHash",
          "type": "string"
        },
        {
          "internalType": "address",
          "name": "doctor",
          "type": "address"
        }
      ],
      "name": "revokeAccess",
      "outputs": [],
      "stateMutability": "nonpayable",
      "type": "function"
    }
  ],
  "bytecode": "0x6080604052348015600f57600080fd5b50610de78061001f6000396000f3fe608060405234801561001057600080fd5b506004361061004c5760003560e01c80636c8889d314610051578063b7ef5baf1461006d578063dfe0b5fe1461009d578063f37c215e146100b9575b600080fd5b61006b60048036038101906100669190610758565b6100d5565b005b610087600480360381019061008291906107ff565b61023b565b6040516100949190610876565b60405180910390f35b6100b760048036038101906100b291906107ff565b6102b0565b005b6100d360048036038101906100ce91906107ff565b61049e565b005b6000815111610119576040517f08c379a0000000000000000000000000000000000000000000000000000000008152600401610110906108ee565b60405180910390fd5b6000808260405161012a919061097f565b908152602001604051809103902090508181600001908161014b9190610bac565b50338160010160006101000a81548173ffffffffffffffffffffffffffffffffffffffff021916908373ffffffffffffffffffffffffffffffffffffffff16021790555060018160020160003373ffffffffffffffffffffffffffffffffffffffff1673ffffffffffffffffffffffffffffffffffffffff16815260200190815260200160002060006101000a81548160ff0219169083151502179055503373ffffffffffffffffffffffffffffffffffffffff167f330708f33e41cd6854ccca7682c01fd7a2dc28cfcefdcbeab7e1eee8a326826e8360405161022f9190610cb7565b60405180910390a25050565b6000808360405161024c919061097f565b908152602001604051809103902060020160008373ffffffffffffffffffffffffffffffffffffffff1673ffffffffffffffffffffffffffffffffffffffff16815260200190815260200160002060009054906101000a900460ff16905092915050565b600080836040516102c1919061097f565b908152602001604051809103902090503373ffffffffffffffffffffffffffffffffffffffff168160010160009054906101000a900473ffffffffffffffffffffffffffffffffffffffff1673ffffffffffffffffffffffffffffffffffffffff1614610363576040517f08c379a000000000000000000000000000000000000000000000000000000000815260040161035a90610d25565b60405180910390fd5b8060020160008373ffffffffffffffffffffffffffffffffffffffff1673ffffffffffffffffffffffffffffffffffffffff16815260200190815260200160002060009054906101000a900460ff166103f1576040517f08c379a00000000000000000000000000000000000000000000000000000000081526004016103e890610d91565b60405180910390fd5b60008160020160008473ffffffffffffffffffffffffffffffffffffffff1673ffffffffffffffffffffffffffffffffffffffff16815260200190815260200160002060006101000a81548160ff0219169083151502179055508173ffffffffffffffffffffffffffffffffffffffff167f51cbcaaca6ae26944c6280c966a07b04ca5c6766d82ca497ded152579431468d846040516104919190610cb7565b60405180910390a2505050565b600080836040516104af919061097f565b908152602001604051809103902090503373ffffffffffffffffffffffffffffffffffffffff168160010160009054906101000a900473ffffffffffffffffffffffffffffffffffffffff1673ffffffffffffffffffffffffffffffffffffffff1614610551576040517f08c379a000000000000000000000000000000000000000000000000000000000815260040161054890610d25565b60405180910390fd5b60018160020160008473ffffffffffffffffffffffffffffffffffffffff1673ffffffffffffffffffffffffffffffffffffffff16815260200190815260200160002060006101000a81548160ff0219169083151502179055508173ffffffffffffffffffffffffffffffffffffffff167f883d542f167dfc5f47e8bf1532c171025ed0e4c59c1126c7f61749fa21976a45846040516105f19190610cb7565b60405180910390a2505050565b6000604051905090565b600080fd5b600080fd5b600080fd5b600080fd5b6000601f19601f8301169050919050565b7f4e487b7100000000000000000000000000000000000000000000000000000000600052604160045260246000fd5b6106658261061c565b810181811067ffffffffffffffff821117156106845761068361062d565b5b80604052505050565b60006106976105fe565b90506106a3828261065c565b919050565b600067ffffffffffffffff8211156106c3576106c261062d565b5b6106cc8261061c565b9050602081019050919050565b82818337600083830152505050565b60006106fb6106f6846106a8565b61068d565b90508281526020810184848401111561071757610716610617565b5b6107228482856106d9565b509392505050565b600082601f83011261073f5761073e610612565b5b813561074f8482602086016106e8565b91505092915050565b60006020828403121561076e5761076d610608565b5b600082013567ffffffffffffffff81111561078c5761078b61060d565b5b6107988482850161072a565b91505092915050565b600073ffffffffffffffffffffffffffffffffffffffff82169050919050565b60006107cc826107a1565b9050919050565b6107dc816107c1565b81146107e757600080fd5b50565b6000813590506107f9816107d3565b92915050565b6000806040838503121561081657610815610608565b5b600083013567ffffffffffffffff8111156108345761083361060d565b5b6108408582860161072a565b9250506020610851858286016107ea565b9150509250929050565b60008115159050919050565b6108708161085b565b82525050565b600060208201905061088b6000830184610867565b92915050565b600082825260208201905092915050565b7f496e76616c696420686173680000000000000000000000000000000000000000600082015250565b60006108d8600c83610891565b91506108e3826108a2565b602082019050919050565b60006020820190508181036000830152610907816108cb565b9050919050565b600081519050919050565b600081905092915050565b60005b83811015610942578082015181840152602081019050610927565b60008484015250505050565b60006109598261090e565b6109638185610919565b9350610973818560208601610924565b80840191505092915050565b600061098b828461094e565b915081905092915050565b7f4e487b7100000000000000000000000000000000000000000000000000000000600052602260045260246000fd5b600060028204905060018216806109dd57607f821691505b6020821081036109f0576109ef610996565b5b50919050565b60008190508160005260206000209050919050565b60006020601f8301049050919050565b600082821b905092915050565b600060088302610a587fffffffffffffffffffffffffffffffffffffffffffffffffffffffffffffffff82610a1b565b610a628683610a1b565b95508019841693508086168417925050509392505050565b6000819050919050565b6000819050919050565b6000610aa9610aa4610a9f84610a7a565b610a84565b610a7a565b9050919050565b6000819050919050565b610ac383610a8e565b610ad7610acf82610ab0565b848454610a28565b825550505050565b600090565b610aec610adf565b610af7818484610aba565b505050565b5b81811015610b1b57610b10600082610ae4565b600181019050610afd565b5050565b601f821115610b6057610b31816109f6565b610b3a84610a0b565b81016020851015610b49578190505b610b5d610b5585610a0b565b830182610afc565b50505b505050565b600082821c905092915050565b6000610b8360001984600802610b65565b1980831691505092915050565b6000610b9c8383610b72565b9150826002028217905092915050565b610bb58261090e565b67ffffffffffffffff811115610bce57610bcd61062d565b5b610bd882546109c5565b610be3828285610b1f565b600060209050601f831160018114610c165760008415610c04578287015190505b610c0e8582610b90565b865550610c76565b601f198416610c24866109f6565b60005b82811015610c4c57848901518255600182019150602085019450602081019050610c27565b86831015610c695784890151610c65601f891682610b72565b8355505b6001600288020188555050505b505050505050565b6000610c898261090e565b610c938185610891565b9350610ca3818560208601610924565b610cac8161061c565b840191505092915050565b60006020820190508181036000830152610cd18184610c7e565b905092915050565b7f4e6f74206f776e65720000000000000000000000000000000000000000000000600082015250565b6000610d0f600983610891565b9150610d1a82610cd9565b602082019050919050565b60006020820190508181036000830152610d3e81610d02565b9050919050565b7f446f63746f7220646f6573206e6f742068617665206163636573730000000000600082015250565b6000610d7b601b83610891565b9150610d8682610d45565b602082019050919050565b60006020820190508181036000830152610daa81610d6e565b905091905056fea26469706673582212205ac55819db22e2d65c9530c5f34bcd90a87a908b468ea8e088ac5e03f002305064736f6c634300081c0033",
  "linkReferences": {},
  "deployedLinkReferences": {}
}